:100000000C9446000C9465000C9465000C946500FB
:100010000C9465000C9465000C9465000C946500CC
:100020000C9465000C9465000C9465000C946500BC
:100030000C9465000C94A3020C9465000C9465006C
:100040000C9465000C9465000C9465000C9465009C
:100050000C9465000C9465000C9465000C9465008C
:100060000C9465000C9465000C9465000C9465007C
:100070000C9465000C9465000C9465000C9465006C
:100080000C9465000C9465000C94650011241FBE4F
:10009000CFEFD0E4DEBFCDBF11E0A0E0B1E0EAE9F0
:1000A000FAE000E00BBF02C007900D92A638B1073E
:1000B000D9F721E0A6E8B1E001C01D92AE3BB2073E
:1000C000E1F70E945C040C944B050C94000040E0A6
:1000D00050E00CC000002F5F3F4F02C020E030E036
:1000E000273063E03607B4F34F5F5F4F4817590777
:1000F000ACF308959BB19F7B9BB985B98BB18068A8
:100100008BB900008BB18F778BB982E090E00E94B1
:100110006700089581E00E947A000895813120F4FB
:1001200081580E947A00089581550E947A000895AE
:1001300084E690E00E94670088E30E947A0086E0EF
:100140000E947A008FE00E947A0081E00E947A008B
:100150008AE090E00E94670008959BB190649BB98B
:1001600085B98BB180688BB900008BB18F778BB963
:1001700081E090E00E9467000895EF92FF920F9354
:100180001F93CF93DF93182FEB010E948A000EC0BC
:1001900001E0010F812F0E948E007E018FEFE81A8F
:1001A000F80A88810E94AD00102FE7018881811133
:1001B000EFCFDF91CF911F910F91FF90EF900895B6
:1001C000CF93C82F8A3019F48DE00E94E00080910F
:1001D000C00085FFFCCFC093C60080E090E0CF91C7
:1001E00008958130910599F01CF4009741F008952D
:1001F00082309105C1F083309105E9F008950299AC
:1002000024C081E080938C0181E090E00895029900
:1002100004C021E020938C01089581E080938C013B
:1002200082E090E00895029910C081E080938C01F3
:1002300083E090E00895029904C021E020938C01AE
:10024000089510928C0180E090E0089520918B0138
:100250002223D9F0009749F40E948A0069E671E0F0
:1002600081E00E94BD0081E090E08130910569F459
:1002700002990BC010928B010E948A0083E0809348
:1002800002010E948E0080E090E00895CF93DF93FA
:10029000EC0180918C0181111FC080918B01811133
:1002A0001BC0209739F483E0809302010E948E00E6
:1002B000C1E0D0E0C130D10579F4009906C083E0F7
:1002C000809302010E948E0007C0019905C083E15E
:1002D000809302010E948E00CE01DF91CF9108959C
:1002E000442349F021E030E002C0220F331F6A9519
:1002F000E2F7822B089521E030E002C0220F331F85
:100300006A95E2F720958223089521E030E002C04B
:10031000220F331F6A95E2F78223089540E064E0DC
:100320008FEF0E94700188B9000086B160E080956F
:100330000E948501811180C086B161E080950E9494
:10034000850181117BC086B162E080950E948501A4
:10035000811176C086B163E080950E94850181118C
:1003600071C040E065E08FEF0E94700188B9000025
:1003700086B160E080950E948501811165C086B1DB
:1003800061E080950E948501811160C086B162E0C4
:1003900080950E94850181115BC086B163E08095E4
:1003A0000E948501811156C040E066E08FEF0E94F7
:1003B000700188B9000086B160E080950E948501D7
:1003C00081114AC086B161E080950E94850181114A
:1003D00045C086B162E080950E948501811140C0D0
:1003E00086B163E080950E94850181113BC040E0A9
:1003F00067E08FEF0E94700188B9000086B160E06D
:1004000080950E94850181112FC086B161E08095A1
:100410000E94850181112AC086B162E080950E9408
:100420008501811125C086B163E080950E94850118
:100430008823F9F084E4089581E3089584E308951E
:1004400087E308958AE2089582E3089585E3089595
:1004500088E3089580E3089583E3089586E308958B
:1004600089E3089583E2089581E4089582E408957C
:1004700083E408950F931F93CF93DF93B62FA72F95
:10048000F82FE92F022F132FD42FC52F04C0062FCA
:10049000172FD82FC92F6B2F7A2F8F2F9E2F202FFA
:1004A000312F4D2F5C2F0E942905B02FA12FFD2F3A
:1004B000EC2F611571058105910549F7602F712FAA
:1004C0008D2F9C2FDF91CF911F910F9108956093F5
:1004D0005D0170935E0180935F0190936001609372
:1004E0008D0170938E0180938F01909390010895F8
:1004F0008BE0809381008DE790E09093890080935A
:10050000880082E080936F00109285001092840032
:1005100080915D0190915E01A0915F01B0916001B9
:1005200080938D0190938E01A0938F01B0939001E1
:100530008FB780688FBF089510928100089581E081
:100540008093910108951F920F920FB60F9211247C
:100550000BB60F922F933F934F935F936F937F93BD
:100560008F939F93AF93BF93EF93FF9380918D01F0
:1005700090918E01A0918F01B09190010197A109F6
:10058000B10980938D0190938E01A0938F01B09358
:100590009001892B8A2B8B2B91F40E949F028091D2
:1005A0005D0190915E01A0915F01B0916001809327
:1005B0008D0190938E01A0938F01B0939001FF91D4
:1005C000EF91BF91AF919F918F917F916F915F91CB
:1005D0004F913F912F910F900BBE0F900FBE0F9038
:1005E0001F90189590910201981304C0633221F076
:1005F00080E0089580E0089581E0089510928A01D6
:100600001092890110928801109287011092860140
:1006100080E18093010180E28093000108950F93AF
:100620001F93CF93DF93EC01E9E2F1E0019000200A
:10063000E9F731978F010952114080918C018111A6
:1006400028C180918B01811127C1209721F0C130F1
:10065000D10561F013C08091010181110FC081119A
:100660000DC010928901C1E0D0E008C080918801DE
:10067000081304C00E94FE02C0E0D0E0209729F0D9
:10068000C130D10509F484C00AC180910101809371
:10069000870180910001809386011092890158C0E2
:1006A000809187010E948E00E0918901F0E0E75D72
:1006B000FE4F8081082E000C990B0E94AD008091A6
:1006C0008701833091F4E0918901F0E0E75DFE4F0E
:1006D00060810E94F202882341F081E080938B01C7
:1006E0000E94FE0280E090E0E2C0809186010E94BC
:1006F0008E00E0918901F0E0ED5FFE4F8081082ED1
:10070000000C990B0E94AD0010918601133199F4F1
:10071000E0918901F0E0ED5FFE4F608183E10E948E
:10072000F202882341F081E080938B010E94FE0257
:1007300080E090E0BCC0809189018F5F8093890147
:10074000809187018F5F809387011F5F10938601DF
:100750009091890180918A01981708F4A1CF809126
:1007600002010E948E00809101018150809301015D
:100770008091000181508093000180918A0180174F
:1007800008F090C08F5F80938A018C2F9D2F8FC0BF
:10079000809188018F5F8093880191E09093870119
:1007A00091E1909386018093890156C00E948E004A
:1007B000E0918901F0E0E75DFE4F8081082E000C9A
:1007C000990B0E94AD0080918701833091F4E091F4
:1007D0008901F0E0E75DFE4F60810E94F20288230C
:1007E00041F081E080938B010E94FE0280E090E066
:1007F0005EC0809186010E948E00E0918901F0E048
:10080000ED5FFE4F8081082E000C990B0E94AD0019
:1008100010918601133199F4E0918901F0E0ED5FC8
:10082000FE4F608183E10E94F202882341F081E063
:1008300080938B010E94FE0280E090E038C080919E
:1008400089018F5F80938901809187018F5F8093F9
:1008500087011F5F109386019091890180918A0121
:10086000981748F480918701813129F09091860191
:10087000913209F09BCF809102010E948E008091FD
:100880008A01801790F48F5F80938A018C2F9D2FAF
:100890000EC08C2F9D2F0BC08C2F9D2F08C08C2F2E
:1008A0009D2F05C08C2F9D2F02C08C2F9D2FDF9177
:1008B000CF911F910F910895CF93DF93CDB7DEB7FE
:1008C00028970FB6F894DEBF0FBECDBF8FEF84B967
:1008D00015B88AB915B811B882B988E0E1E6F1E037
:1008E000DE01119601900D928A95E1F7E3EBF1E0BC
:1008F000108281E090E0A0E0B0E081839283A38346
:10090000B48385839683A783B08726E431E032875A
:100910002187E8EAF1E010824EE551E060E070E006
:1009200041835283638374834583568367837087CF
:100930002FE033E032872187EDE9F1E0108246E9CC
:1009400050E060E070E041835283638374834583A9
:1009500056836783708721EF30E032872187E2E991
:10096000F1E0108281839283A383B483858396838D
:10097000A783B08786E291E09287818711E0812C7E
:10098000912C5401839418C0E12FF0E0EE0FFF1F6B
:1009900081E090E08C0F9D1FE80FF91F0190F0811E
:1009A000E02D2181328143815481C501B4010E942F
:1009B0003A024B015C011F5F143030F3C501B401F2
:1009C0000E9467020E9478020E949800F12C37C0B2
:1009D000EF2DF0E0EE0FFF1FA1E0B0E0AC0FBD1F68
:1009E000EA0FFB1F00811181F80145815681678163
:1009F000708581819281A381B481481759076A0764
:100A00007B0779F40184F285E02DD8018C91082EC2
:100A1000000C990B0995F8018083158216821782C4
:100A20001086F80185819681A781B085880D991D72
:100A3000AA1DBB1D85839683A783B087F394F3E03B
:100A4000FF1530F6809191018823E1F31092910116
:100A5000BDCFA1E21A2EAA1BBB1BFD010DC0AA1F10
:100A6000BB1FEE1FFF1FA217B307E407F50720F017
:100A7000A21BB30BE40BF50B661F771F881F991F92
:100A80001A9469F760957095809590959B01AC01DB
:0A0A9000BD01CF010895F894FFCFD7
:100A9A002010032020202320202020202023202073
:100AAA002020202023202020202020202020202336
:100ABA002020202020202320002023202020202046
:100ACA002320202020202023202020202020202016
:100ADA002020202320202020232020202020000046
:100AEA0000000200000000E0000000000001000019
:100AFA0000B301A8019D0192014855525241592063
:100B0A00464F5220454D424544444544205359538B
:060B1A0054454D5300009C
:00000001FF
