:100000000C9446000C9465000C9465000C946500FB
:100010000C9465000C9465000C9465000C946500CC
:100020000C9465000C9465000C9465000C946500BC
:100030000C9465000C9465000C9465000C946500AC
:100040000C9465000C9465000C9465000C9465009C
:100050000C9465000C9465000C9465000C9465008C
:100060000C9465000C9465000C9465000C9465007C
:100070000C9465000C9465000C9465000C9465006C
:100080000C9465000C9465000C94650011241FBE4F
:10009000CFEFD0E4DEBFCDBF11E0A0E0B1E0EEE4F1
:1000A000F1E000E00BBF02C007900D92AE30B10747
:1000B000D9F721E0AEE0B1E001C01D92AF30B20748
:1000C000E1F70E947E000C94A5000C940000CF93F1
:1000D000C82F8A3019F48DE00E9467008091C0001B
:1000E00085FFFCCFC093C60080E090E0CF910895DB
:1000F000EAE7F0E08081806E8083089511B88FEF89
:1001000084B915B88AB91BB80E94780081E085B916
:10011000409178005091790097E081E013C068E346
:10012000869F900111242417350750F02FEF30E0FF
:10013000092E02C0359527950A94E2F725B989E082
:0E0140008F5F9150893058F3E3CFF894FFCFD2
:0E014E0000000002000000006700000000003A
:00000001FF
