:100000000C9446000C945D000C945D000C945D0013
:100010000C945D000C945D000C945D000C945D00EC
:100020000C945D000C945D000C945D000C945D00DC
:100030000C945D000C945D000C945D000C945D00CC
:100040000C945D000C945D000C945D000C945D00BC
:100050000C945D000C945D000C945D000C945D00AC
:100060000C945D000C945D000C945D000C945D009C
:100070000C945D000C945D000C945D000C945D008C
:100080000C945D000C945D000C945D0011241FBE67
:10009000CFEFD0E4DEBFCDBF11E0A0E0B1E0E8E2F9
:1000A000F1E000E00BBF02C007900D92AE30B10747
:1000B000D9F70E948B000C9492000C940000CF930F
:1000C000C82F8A3019F48DE00E945F009091C00023
:1000D00095FFFCCFC093C60080E090E0CF910895DB
:1000E00080E090E015C020B1492F30E0092E02C019
:1000F000359527950A94E2F720FD8F5F23B130E014
:1001000002C0359527954A95E2F720FD8F5F9F5FE6
:10011000983048F3089511B814B817B80E947000C9
:0801200088B9FCCFF894FFCF71
:0E01280000000002000000005F000000000068
:00000001FF
