:100000000C9446000C9465000C9465000C946500FB
:100010000C9465000C9465000C9465000C946500CC
:100020000C9465000C9465000C9465000C946500BC
:100030000C9465000C94A3000C9465000C9465006E
:100040000C9465000C9465000C9465000C9465009C
:100050000C9465000C9465000C9465000C9465008C
:100060000C9465000C9465000C9465000C9465007C
:100070000C9465000C9465000C9465000C9465006C
:100080000C9465000C9465000C94650011241FBE4F
:10009000CFEFD0E4DEBFCDBF11E0A0E0B1E0E6E0FD
:1000A000F5E000E00BBF02C007900D92A231B1074E
:1000B000D9F721E0A2E1B1E001C01D92AB31B20756
:1000C000E1F70E94EA010C9481020C940000CF93A6
:1000D000C82F8A3019F48DE00E9467008091C0001B
:1000E00085FFFCCFC093C60080E090E0CF910895DB
:1000F0008BE0809381008DE790E09093890080935E
:10010000880082E080936F00109285001092840036
:1001100080910E0190910F01A0911001B0911101F9
:100120008093160190931701A0931801B0931901C1
:100130008FB780688FBF089510928100089581E085
:1001400080931A0108951F920F920FB60F921124F7
:100150000BB60F922F933F934F935F936F937F93C1
:100160008F939F93AF93BF93EF93FF93809116016B
:1001700090911701A0911801B09119010197A1095F
:10018000B1098093160190931701A0931801B093C1
:100190001901892B8A2B8B2B91F40E949F0080914F
:1001A0000E0190910F01A0911001B0911101809367
:1001B000160190931701A0931801B0931901FF91B4
:1001C000EF91BF91AF919F918F917F916F915F91CF
:1001D0004F913F912F910F900BBE0F900FBE0F903C
:1001E0001F90189560930E0170930F01809310017A
:1001F0009093110160931601709317018093180179
:100200009093190108958091140190911501823005
:10021000910509F447C028F4009759F00197D9F1E6
:1002200097C08330910509F444C0049709F475C060
:100230008FC080B190E08095909583709927039747
:1002400039F484E090E0909315018093140180C00C
:1002500080B190E08095909583709927019739F44B
:1002600081E090E0909315018093140171C080B1FA
:1002700090E08095909583709927029739F482E0F9
:1002800090E0909315018093140162C010921501C3
:10029000109214015DC083E090E09093150180936B
:1002A000140156C083E090E09093150180931401EF
:1002B0004FC080B190E08095909583709927892BED
:1002C00029F4109215011092140142C080B190E0FF
:1002D0008095909583709927039739F484E090E096
:1002E000909315018093140133C0809113018B30DA
:1002F00078F1009907C081E090E090931501809318
:10030000140108C0019906C082E090E090931501A5
:1003100080931401109213011BC080B190E080956E
:10032000909583709927892B29F4109215011092CA
:1003300014010EC080B190E080959095837099274C
:10034000039731F484E090E09093150180931401B9
:10035000809114019091150182309105D1F018F42B
:10036000019739F008958330910571F1049709F1EF
:10037000089580911201893060F58F5F809312019A
:100380000E942B028091120190E0C0960E944E02C2
:100390000895809112018823E1F081508093120129
:1003A0000E942B028091120190E0C0960E944E02A2
:1003B0000895109212010E942B028091120190E088
:1003C000C0960E944E020895809113018F5F809322
:1003D0001301089511B88FEF82B987B918B88AB997
:1003E0001BB864E670E080E090E00E94F2000E949A
:1003F00078000E94390280E390E00E944E020E9441
:10040000030180911A018823E1F310921A01F7CFBA
:1004100040E050E00CC000002F5F3F4F02C020E0E2
:1004200030E0273063E03607B4F34F5F5F4F481783
:100430005907ACF308959BB19F7B9BB988B98BB1E9
:1004400080688BB900008BB18F778BB982E090E028
:100450000E940802089581E00E941B0208958131E4
:1004600020F481580E941B02089581550E941B02AE
:10047000089584E690E00E94080288E30E941B022F
:1004800086E00E941B028FE00E941B0281E00E9416
:100490001B028AE090E00E94080208959BB19064DC
:1004A0009BB988B98BB180688BB900008BB18F770D
:1004B0008BB981E090E00E9408020895EF92FF92CC
:1004C0000F931F93CF93DF93182FEB010E942B0202
:1004D0000EC001E0010F812F0E942F027E018FEFDD
:1004E000E81AF80A88810E944E02102FE7018881DD
:1004F0008111EFCFDF91CF911F910F91FF90EF907E
:060500000895F894FFCFFE
:10050600000000020000000067000000000001007B
:020516000000E3
:00000001FF
