:100000000C9446000C9465000C9465000C946500FB
:100010000C9465000C9465000C9465000C946500CC
:100020000C9465000C9465000C9465000C946500BC
:100030000C9465000C9465000C9465000C946500AC
:100040000C9465000C9465000C9465000C9465009C
:100050000C9465000C9465000C9465000C9465008C
:100060000C9465000C9465000C9465000C9465007C
:100070000C9465000C9465000C9465000C9465006C
:100080000C9465000C9465000C94650011241FBE4F
:10009000CFEFD0E4DEBFCDBF11E0A0E0B1E0E2ECF5
:1000A000F1E000E00BBF02C007900D92AC31B10748
:1000B000D9F721E0ACE1B1E001C01D92A032B20756
:1000C000E1F70E94D7000C94DF000C940000CF935E
:1000D000C82F8A3019F48DE00E9467008091C0001B
:1000E00085FFFCCFC093C60080E090E0CF910895DB
:1000F00080911E0190911F01009719F00197A1F0C6
:1001000029C0009907C081E090E090931F0180937F
:100110001E0120C010921F0110921E0110921D019D
:1001200010921C0118B816C0009905C080911D01DD
:100130008F5F80931D0180911D01833028F0109204
:100140001F0110921E0106C081E090E090931F01F4
:1001500080931E0180911E0190911F01019731F53E
:1001600080911D0190E020911C01FC01EE0FFF1F0A
:10017000EE0FFF1FEE0FFF1FE81BF90BE050FF4FC4
:10018000E20FF11D808188B980911C018F5F8093FF
:100190001C01883010F010921C012FEF80E792E0D4
:1001A000215080409040E1F700C00000089511B850
:1001B0008FEF82B987B918B80E947800FDCFF89404
:0201C000FFCF6F
:1001C2000103070F1F3F003F1F0F0703010000003D
:0C01D200000200000000670000000000B8
:00000001FF
