:100000000C9446000C9465000C9465000C946500FB
:100010000C9465000C9465000C9465000C946500CC
:100020000C9465000C9465000C9465000C946500BC
:100030000C9465000C94B4000C9465000C9465005D
:100040000C9465000C9465000C9465000C9465009C
:100050000C9465000C9465000C9465000C9465008C
:100060000C9465000C9465000C9465000C9465007C
:100070000C9465000C9465000C9465000C9465006C
:100080000C9465000C9465000C94650011241FBE4F
:10009000CFEFD0E4DEBFCDBF11E0A0E0B1E0E0E003
:1000A000F8E000E00BBF02C007900D92AE3AB10736
:1000B000D9F721E0AEEAB1E001C01D92A73BB2073B
:1000C000E1F70E9413020C94FE030C940000CF93FE
:1000D000C82F8A3019F48DE00E9467008091C0001B
:1000E00085FFFCCFC093C60080E090E0CF910895DB
:1000F0006093AA017093AB018093AC019093AD0122
:100100006093B2017093B3018093B4019093B501F1
:1001100008958BE0809381008DE790E090938900B3
:100120008093880082E080936F0010928500109287
:1001300084008091AA019091AB01A091AC01B09193
:10014000AD018093B2019093B301A093B401B09339
:10015000B5018FB780688FBF089510928100089510
:1001600081E08093B60108951F920F920FB60F920F
:1001700011240BB60F922F933F934F935F936F937E
:100180007F938F939F93AF93BF93EF93FF93809150
:10019000B2019091B301A091B401B091B501019762
:1001A000A109B1098093B2019093B301A093B40166
:1001B000B093B501892B8A2B8B2B91F40E94B00050
:1001C0008091AA019091AB01A091AC01B091AD01D9
:1001D0008093B2019093B301A093B401B093B501A1
:1001E000FF91EF91BF91AF919F918F917F916F910F
:1001F0005F914F913F912F910F900BBE0F900FBECB
:100200000F901F901895CF92DF92EF92FF926B01A3
:100210007C01609100017091010180910201909137
:100220000301A70196010E942D02882309F458C0FA
:1002300020E030E0A901C701B6010E942D02811122
:1002400006C0E1E9F0E080818870808305C0E1E9C3
:10025000F0E080818360808328E539E344E75FE351
:10026000C701B6010E942D0288233CF48FEF9FEF57
:10027000909399008093980027C020E034E244EFE7
:1002800056E4C701B6010E948C0318162CF4109294
:1002900099001092980018C020E030E040E053E44C
:1002A000C701B6010E9491039B01AC0160E074E2BA
:1002B00084EF9AE40E9432020E94A4026150710904
:1002C000709399006093980010929500109294009A
:1002D000C0920001D0920101E0920201F09203016C
:1002E000FF90EF90DF90CF90089580E4809390008E
:1002F0008BE08093910060E070E0CB010E940301ED
:10030000089510929000109291000895CF92DF927C
:10031000EF92FF92CF938091B0019091B101813023
:10032000910589F038F082309105E9F0039709F4DE
:100330006EC073C0009971C081E090E09093B101EC
:100340008093B0016AC0009907C081E090E090936B
:10035000B1018093B00161C082E090E09093B1015F
:100360008093B0015AC0E091AF01F0E0EE0FFF1FA3
:10037000EE0FFF1FE05BFE4F6081718182819381F0
:100380000E9403016091AE0181E0860F8093AE016F
:1003900070E080E090E00E94DC026B017C01C09183
:1003A000AF01EC2FF0E0EE0FFF1FEE0FFF1FEC5F31
:1003B000FE4F608171818281938120E030E048ECC2
:1003C00053E40E9432029B01AC01C701B6010E94B6
:1003D0008C0318161CF4CF5FC093AF018091AF015E
:1003E0008331D8F01092AF01009907C083E090E00C
:1003F0009093B1018093B00104C01092B1011092AA
:10040000B00160E070E0CB010E94030106C0009BD8
:1004100004C01092B1011092B001CF91FF90EF9003
:10042000DF90CF90089511B88FEF82B984B915B8D5
:100430001092AE0160E971E080E090E00E947800E7
:100440000E9489000E9475010E9486018091B60178
:100450008823E1F31092B601F7CF0E94170308F446
:1004600081E008950E9446020C9452030E944B03BF
:1004700058F00E94440340F029F45F3F29F00C94A7
:100480003B0351110C9486030C9441030E946303B7
:1004900068F39923B1F3552391F3951B550BBB27B3
:1004A000AA2762177307840738F09F5F5F4F220FF8
:1004B000331F441FAA1FA9F335D00E2E3AF0E0E8EF
:1004C00032D091505040E695001CCAF72BD0FE2F39
:1004D00029D0660F771F881FBB1F261737074807CD
:1004E000AB07B0E809F0BB0B802DBF01FF27935885
:1004F0005F4F3AF09E3F510578F00C943B030C940B
:1005000086035F3FE4F3983ED4F38695779567952D
:10051000B795F7959F5FC9F7880F911D96958795B9
:1005200097F90895E1E0660F771F881FBB1F6217D8
:1005300073078407BA0720F0621B730B840BBA0B96
:10054000EE1F88F7E09508950E94AB026894B11100
:100550000C94860308950E946B0388F09F5798F0CF
:10056000B92F9927B751B0F0E1F0660F771F881FB8
:10057000991F1AF0BA95C9F714C0B13091F00E94D2
:100580008503B1E008950C948503672F782F8827A1
:10059000B85F39F0B93FCCF3869577956795B395F9
:1005A000D9F73EF490958095709561957F4F8F4F68
:1005B0009F4F0895E89409C097FB3EF4909580956D
:1005C000709561957F4F8F4F9F4F9923A9F0F92F19
:1005D00096E9BB279395F695879577956795B79597
:1005E000F111F8CFFAF4BB0F11F460FF1BC06F5F7D
:1005F0007F4F8F4F9F4F16C0882311F096E911C08F
:10060000772321F09EE8872F762F05C0662371F0AF
:1006100096E8862F70E060E02AF09A95660F771FC3
:10062000881FDAF7880F9695879597F90895990F9F
:100630000008550FAA0BE0E8FEEF16161706E807AC
:10064000F907C0F012161306E407F50798F0621BCD
:10065000730B840B950B39F40A2661F0232B242BA2
:10066000252B21F408950A2609F4A140A6958FEFC1
:10067000811D811D089597F99F6780E870E060E013
:1006800008959FEF80EC089500240A94161617062B
:1006900018060906089500240A9412161306140673
:1006A00005060895092E0394000C11F4882352F0D6
:1006B000BB0F40F4BF2B11F460FF04C06F5F7F4F8E
:1006C0008F4F9F4F089557FD9058440F551F59F075
:1006D0005F3F71F04795880F97FB991F61F09F3F2F
:1006E00079F087950895121613061406551FF2CF58
:1006F0004695F1DF08C0161617061806991FF1CFA8
:1007000086957105610508940895E894BB276627CE
:100710007727CB0197F908950E94170308F48FEF0C
:1007200008950E94A4030C9452030E94440338F0DD
:100730000E944B0320F0952311F00C943B030C9482
:10074000410311240C9486030E94630370F3959F68
:10075000C1F3950F50E0551F629FF001729FBB27B8
:10076000F00DB11D639FAA27F00DB11DAA1F649F54
:100770006627B00DA11D661F829F2227B00DA11D07
:10078000621F739FB00DA11D621F839FA00D611D8D
:10079000221F749F3327A00D611D231F849F600DAE
:1007A000211D822F762F6A2F11249F5750409AF0D7
:1007B000F1F088234AF0EE0FFF1FBB1F661F771F63
:1007C000881F91505040A9F79E3F510580F00C942E
:1007D0003B030C9486035F3FE4F3983ED4F3869585
:1007E00077956795B795F795E7959F5FC1F7FE2BCE
:1007F000880F911D9695879597F90895F894FFCFE6
:10080000000080BF0060EF440080D44400E0BD449D
:100810000000B34400609F4400008E4400807D448B
:1008200000006F4400807D4400008E4400609F44BF
:100830000000B34400E0BD440080D4440060EF44B5
:100840000080D4440060EF4400000000000000007D
:1008500000808243000093430080A4430080AE43A5
:100860000000C4430000DC430080F64300C00244A3
:100870000080F6430080E0430000C4430080AE43A4
:100880000080A44300009343008082430000934310
:100890000080824300000000000000000000000211
:0E08A0000000000067000000000001000000E2
:00000001FF
