:100000000C9446000C9465000C9465000C946500FB
:100010000C9465000C9465000C9465000C946500CC
:100020000C9465000C9465000C9465000C946500BC
:100030000C9465000C94B4000C9465000C9465005D
:100040000C9465000C9465000C9465000C9465009C
:100050000C9465000C9465000C9465000C9465008C
:100060000C9465000C9465000C9465000C9465007C
:100070000C9465000C9465000C9465000C9465006C
:100080000C9465000C9465000C94650011241FBE4F
:10009000CFEFD0E4DEBFCDBF11E0A0E0B1E0ECEFE8
:1000A000F3E000E00BBF02C007900D92A431B1074E
:1000B000D9F721E0A4E1B1E001C01D92A932B20755
:1000C000E1F70E949D010C94FC010C940000CF9379
:1000D000C82F8A3019F48DE00E9467008091C0001B
:1000E00085FFFCCFC093C60080E090E0CF910895DB
:1000F000609310017093110180931201909313018A
:100100006093240170932501809326019093270129
:1001100008958BE0809381008DE790E090938900B3
:100120008093880082E080936F0010928500109287
:1001300084008091100190911101A0911201B09161
:1001400013018093240190932501A0932601B0937D
:1001500027018FB780688FBF08951092810008959E
:1001600081E08093280108951F920F920FB60F929D
:1001700011240BB60F922F933F934F935F936F937E
:100180007F938F939F93AF93BF93EF93FF93809150
:10019000240190912501A0912601B091270101979A
:1001A000A109B1098093240190932501A093260110
:1001B000B0932701892B8A2B8B2B91F40E94B000DE
:1001C0008091100190911101A0911201B091130141
:1001D0008093240190932501A0932601B0932701D9
:1001E000FF91EF91BF91AF919F918F917F916F910F
:1001F0005F914F913F912F910F900BBE0F900FBECB
:100200000F901F90189580911A0190911B018130D9
:100210009105B1F018F0029731F10895009907C0E7
:1002200081E090E090931B0180931A010895019959
:1002300033C082E090E090931B0180931A010895EF
:10024000009907C081E090E090931B0180931A0110
:10025000089510921B0110921A01809100018F5F86
:10026000809300010895019907C082E090E0909387
:100270001B0180931A01089510921B0110921A011C
:1002800080910001282F30E02150310922303105C2
:100290001CF081508093000108958091220190917B
:1002A0002301892B89F48091160191E0082E01C069
:1002B000990F0A94EAF7909319018F5F80931601C2
:1002C000833010F0109216010895809120019091D2
:1002D0002101892B69F48091150180FD03C01092E2
:1002E000180103C098E0909318018F5F8093150167
:1002F000089580911E0190911F01892B49F49091DE
:10030000190180911801892B90911701892B85B9CA
:10031000089580911C0190911D01892B69F48091B1
:10032000140180FF04C090E19093170102C0109265
:1003300017018F5F80931401089511B88FEF82B970
:1003400084B915B862E070E080E090E00E94780027
:100350000E94890010921601C12CD12C7601412CEB
:10036000512C3201812C912C54018FE5881681E0AB
:100370009806A104B10428F00E944D01812C912C13
:10038000540186E2481682E058066104710428F0A0
:100390000E946501412C512C32018091000190E0B6
:1003A000A0E0B0E08C159D05AE05BF0558F402999C
:1003B00006C00E948901C12CD12C760103C0C12C3A
:1003C000D12C76010E9403010E94790180912801BD
:1003D0008823E1F31092280182E0880E911CA11C71
:1003E000B11C82E0480E511C611C711C82E0C80ED9
:0C03F000D11CE11CF11CB9CFF894FFCF28
:1003FC000201000000020000000067000000000085
:04040C0001000000EB
:00000001FF
