:100000000C944D000C946C000C946C000C946C00DF
:100010000C946C000C946C000C946C000C946C00B0
:100020000C946C000C946C000C946C000C946C00A0
:100030000C946C000C94AA000C946C000C946C0052
:100040000C946C000C946C000C946C000C946C0080
:100050000C946C000C946C000C946C000C946C0070
:100060000C946C000C946C000C946C000C946C0060
:100070000C946C000C946C000C946C000C946C0050
:100080000C946C000C946C000C946C0016011D0117
:1000900034014B0162018201790111241FBECFEFAF
:1000A000D0E4DEBFCDBF11E0A0E0B1E0EEE9F3E0C7
:1000B00000E00BBF02C007900D92A231B107D9F743
:1000C00021E0A2E1B1E001C01D92AA31B207E1F73F
:1000D0000E94AA010C94CD010C940000CF93C82F6C
:1000E0008A3019F48DE00E946E008091C00085FF77
:1000F000FCCFC093C60080E090E0CF9108958BE0E4
:10010000809381008DE790E0909389008093880030
:1001100082E080936F00109285001092840080919D
:100120000E0190910F01A0911001B09111018093E7
:10013000130190931401A0931501B09316018FB78A
:1001400080688FBF089510928100089581E08093A8
:10015000170108951F920F920FB60F9211240BB63C
:100160000F922F933F934F935F936F937F938F9350
:100170009F93AF93BF93EF93FF938091130190915F
:100180001401A0911501B09116010197A109B109BF
:100190008093130190931401A0931501B09316015D
:1001A000892B8A2B8B2B91F40E94A60080910E0143
:1001B00090910F01A0911001B09111018093130152
:1001C00090931401A0931501B0931601FF91EF9144
:1001D000BF91AF919F918F917F916F915F914F915F
:1001E0003F912F910F900BBE0F900FBE0F901F905D
:1001F000189560930E0170930F01809310019093F6
:100200001101609313017093140180931501909371
:1002100016010895E0911801F0911901E730F105F8
:1002200008F07BC0EA5BFF4F0C94C40181E090E0D2
:10023000909319018093180170C0009910921201D7
:1002400000990BC080911201811107C085E090E0F8
:10025000909319018093180160C082E090E0909320
:1002600019018093180159C0009910921201009948
:100270000BC080911201811107C085E090E090933E
:1002800019018093180149C083E090E0909319010F
:100290008093180142C000991092120100990BC07E
:1002A00080911201811107C085E090E090931901BF
:1002B0008093180132C084E090E0909319018093FC
:1002C00018012BC000991092120100990BC0809167
:1002D0001201811107C085E090E09093190180938D
:1002E00018011BC081E090E09093190180931801E0
:1002F00014C0009912C081E090E09093190180939E
:1003000018010BC0009B09C086E090E09093190192
:100310008093180181E080931201809118019091DF
:1003200019018230910569F018F4019739F00895A8
:100330008330910549F0049751F0089581E085B923
:10034000089582E085B9089584E085B9089582E032
:1003500085B9089511B88FEF82B984B915B86CE2E8
:1003600071E080E090E00E94F9000E947F0010920E
:100370001901109218010E940A0180911701882327
:10038000E1F310921701F7CFEE0FFF1F0024001CBE
:0E0390000BBE0790F691E02D0994F894FFCF74
:10039E0000000002000000006E00000000000100DE
:0203AE0000004D
:00000001FF
